:020000020000FC
:100000000CC006B397C6D5F507F7D7E7F471B6F17C
:10001000E1770FEF0DBF18E01EBF00E8009361000D
:1000200004E0009361002FE027B905E005BD0BE96E
:1000300006BD3FEF3AB933E034B935B9E2E0F0E05C
:1000400002D00BD0FDCFA89BFECFA89A08B1039594
:10005000003109F4002708B90895189908C06AEF1B
:100060006A95F1F79395903161F491E0F6CF199983
:10007000F4CF6AEF6A95F1F79A95913011F490E117
:1000800000C0E90F34913BB96FEF6A95F1F708951D
:00000001FF
